{
  "_format": "hh-sol-artifact-1",
  "contractName": "KBMarket",
  "sourceName": "contracts/KBMarket.sol",
  "abi": [
    {
      "inputs": [],
      "stateMutability": "nonpayable",
      "type": "constructor"
    },
    {
      "anonymous": false,
      "inputs": [
        {
          "indexed": true,
          "internalType": "uint256",
          "name": "itemId",
          "type": "uint256"
        },
        {
          "indexed": true,
          "internalType": "address",
          "name": "nftContract",
          "type": "address"
        },
        {
          "indexed": true,
          "internalType": "uint256",
          "name": "tokenId",
          "type": "uint256"
        },
        {
          "indexed": false,
          "internalType": "address",
          "name": "seller",
          "type": "address"
        },
        {
          "indexed": false,
          "internalType": "address",
          "name": "owner",
          "type": "address"
        },
        {
          "indexed": false,
          "internalType": "uint256",
          "name": "price",
          "type": "uint256"
        },
        {
          "indexed": false,
          "internalType": "bool",
          "name": "sold",
          "type": "bool"
        }
      ],
      "name": "MarketTokenMinted",
      "type": "event"
    },
    {
      "inputs": [
        {
          "internalType": "address",
          "name": "nftContract",
          "type": "address"
        },
        {
          "internalType": "uint256",
          "name": "tokenId",
          "type": "uint256"
        },
        {
          "internalType": "uint256",
          "name": "price",
          "type": "uint256"
        }
      ],
      "name": "MintMarketItem",
      "outputs": [],
      "stateMutability": "payable",
      "type": "function"
    },
    {
      "inputs": [
        {
          "internalType": "address",
          "name": "nftContract",
          "type": "address"
        },
        {
          "internalType": "uint256",
          "name": "itemId",
          "type": "uint256"
        }
      ],
      "name": "createMarketSale",
      "outputs": [],
      "stateMutability": "payable",
      "type": "function"
    },
    {
      "inputs": [],
      "name": "fetchMarketToken",
      "outputs": [
        {
          "components": [
            {
              "internalType": "uint256",
              "name": "itemId",
              "type": "uint256"
            },
            {
              "internalType": "address",
              "name": "nftContract",
              "type": "address"
            },
            {
              "internalType": "uint256",
              "name": "tokenId",
              "type": "uint256"
            },
            {
              "internalType": "address payable",
              "name": "seller",
              "type": "address"
            },
            {
              "internalType": "address payable",
              "name": "owner",
              "type": "address"
            },
            {
              "internalType": "uint256",
              "name": "price",
              "type": "uint256"
            },
            {
              "internalType": "bool",
              "name": "sold",
              "type": "bool"
            }
          ],
          "internalType": "struct KBMarket.MarketToken[]",
          "name": "",
          "type": "tuple[]"
        }
      ],
      "stateMutability": "view",
      "type": "function"
    },
    {
      "inputs": [],
      "name": "fetchMintedNFT",
      "outputs": [
        {
          "components": [
            {
              "internalType": "uint256",
              "name": "itemId",
              "type": "uint256"
            },
            {
              "internalType": "address",
              "name": "nftContract",
              "type": "address"
            },
            {
              "internalType": "uint256",
              "name": "tokenId",
              "type": "uint256"
            },
            {
              "internalType": "address payable",
              "name": "seller",
              "type": "address"
            },
            {
              "internalType": "address payable",
              "name": "owner",
              "type": "address"
            },
            {
              "internalType": "uint256",
              "name": "price",
              "type": "uint256"
            },
            {
              "internalType": "bool",
              "name": "sold",
              "type": "bool"
            }
          ],
          "internalType": "struct KBMarket.MarketToken[]",
          "name": "",
          "type": "tuple[]"
        }
      ],
      "stateMutability": "view",
      "type": "function"
    },
    {
      "inputs": [],
      "name": "fetchMyNFts",
      "outputs": [
        {
          "components": [
            {
              "internalType": "uint256",
              "name": "itemId",
              "type": "uint256"
            },
            {
              "internalType": "address",
              "name": "nftContract",
              "type": "address"
            },
            {
              "internalType": "uint256",
              "name": "tokenId",
              "type": "uint256"
            },
            {
              "internalType": "address payable",
              "name": "seller",
              "type": "address"
            },
            {
              "internalType": "address payable",
              "name": "owner",
              "type": "address"
            },
            {
              "internalType": "uint256",
              "name": "price",
              "type": "uint256"
            },
            {
              "internalType": "bool",
              "name": "sold",
              "type": "bool"
            }
          ],
          "internalType": "struct KBMarket.MarketToken[]",
          "name": "",
          "type": "tuple[]"
        }
      ],
      "stateMutability": "view",
      "type": "function"
    },
    {
      "inputs": [],
      "name": "getListingPrice",
      "outputs": [
        {
          "internalType": "uint256",
          "name": "",
          "type": "uint256"
        }
      ],
      "stateMutability": "view",
      "type": "function"
    }
  ],
  "bytecode": "0x6080604052655af3107a400060045534801561001a57600080fd5b506001600055600380546001600160a01b03191633179055610ceb806100416000396000f3fe6080604052600436106100555760003560e01c806312e855851461005a5780633f7e0a381461007d5780637c01cd1f1461009f5780638dcb419c146100b4578063ad63d36c146100c9578063c23b139e146100de575b600080fd5b34801561006657600080fd5b506004546040519081526020015b60405180910390f35b34801561008957600080fd5b506100926100f1565b6040516100749190610bc1565b6100b26100ad366004610b8f565b61029a565b005b3480156100c057600080fd5b50610092610538565b3480156100d557600080fd5b50610092610731565b6100b26100ec366004610b66565b61092a565b606060006100fe60015490565b9050600061010b60025490565b6001546101189190610c6d565b90506000808267ffffffffffffffff81111561014457634e487b7160e01b600052604160045260246000fd5b60405190808252806020026020018201604052801561017d57816020015b61016a610b0e565b8152602001906001900390816101625790505b50905060005b8481101561029157600060058161019b846001610c55565b81526020810191909152604001600020600401546001600160a01b0316141561027f5760006101cb826001610c55565b600081815260056020818152604092839020835160e0810185528154815260018201546001600160a01b0390811693820193909352600282015494810194909452600381015482166060850152600481015490911660808401529081015460a0830152600681015460ff16151560c083015285519293509185908790811061026357634e487b7160e01b600052603260045260246000fd5b6020026020010181905250848061027990610c84565b95505050505b8061028981610c84565b915050610183565b50949350505050565b600260005414156102f25760405162461bcd60e51b815260206004820152601f60248201527f5265656e7472616e637947756172643a207265656e7472616e742063616c6c0060448201526064015b60405180910390fd5b6002600055806103445760405162461bcd60e51b815260206004820152601c60248201527f7072696365206d7573742062652067726561746572207468616e20300000000060448201526064016102e9565b600454341461039f5760405162461bcd60e51b815260206004820152602160248201527f7072696365206d75737420657175616c20746f206c697374696e6720707269636044820152606560f81b60648201526084016102e9565b6103ad600180546001019055565b60006103b860015490565b6040805160e0810182528281526001600160a01b0387811660208084018281528486018a8152336060870181815260006080890181815260a08a018e815260c08b018381528d8452600598899052928c90209a518b55955160018b018054918b166001600160a01b0319928316179055945160028b0155915160038a018054918a1691861691909117905590516004808a01805492909916919094161790965591519286019290925592516006909401805494151560ff199095169490941790935592516323b872dd60e01b81529182015230602482015260448101869052919250906323b872dd90606401600060405180830381600087803b1580156104be57600080fd5b505af11580156104d2573d6000803e3d6000fd5b505060408051338152600060208201819052818301879052606082015290518693506001600160a01b038816925084917fcd9b0dfebab7db4dbe70606f69fadc8e987e7c80a65410f0bb5ae8bd72dabba7919081900360800190a4505060016000555050565b6060600061054560015490565b905060008060005b838110156105a8573360056000610565846001610c55565b81526020810191909152604001600020600401546001600160a01b03161415610596578261059281610c84565b9350505b806105a081610c84565b91505061054d565b5060008267ffffffffffffffff8111156105d257634e487b7160e01b600052604160045260246000fd5b60405190808252806020026020018201604052801561060b57816020015b6105f8610b0e565b8152602001906001900390816105f05790505b50905060005b84811015610291573360056000610629846001610c55565b81526020810191909152604001600020600401546001600160a01b0316141561071f57600060058161065c846001610c55565b81526020808201929092526040908101600090812054808252600580855291839020835160e0810185528154815260018201546001600160a01b0390811696820196909652600282015494810194909452600381015485166060850152600481015490941660808401529083015460a0830152600683015460ff16151560c0830152855190935085908790811061070357634e487b7160e01b600052603260045260246000fd5b6020026020010181905250848061071990610c84565b95505050505b8061072981610c84565b915050610611565b6060600061073e60015490565b905060008060005b838110156107a157336005600061075e846001610c55565b81526020810191909152604001600020600301546001600160a01b0316141561078f578261078b81610c84565b9350505b8061079981610c84565b915050610746565b5060008267ffffffffffffffff8111156107cb57634e487b7160e01b600052604160045260246000fd5b60405190808252806020026020018201604052801561080457816020015b6107f1610b0e565b8152602001906001900390816107e95790505b50905060005b84811015610291573360056000610822846001610c55565b81526020810191909152604001600020600301546001600160a01b03161415610918576000600581610855846001610c55565b81526020808201929092526040908101600090812054808252600580855291839020835160e0810185528154815260018201546001600160a01b0390811696820196909652600282015494810194909452600381015485166060850152600481015490941660808401529083015460a0830152600683015460ff16151560c083015285519093508590879081106108fc57634e487b7160e01b600052603260045260246000fd5b6020026020010181905250848061091290610c84565b95505050505b8061092281610c84565b91505061080a565b6002600054141561097d5760405162461bcd60e51b815260206004820152601f60248201527f5265656e7472616e637947756172643a207265656e7472616e742063616c6c0060448201526064016102e9565b60026000818155828152600560208190526040909120908101549101543482146109d95760405162461bcd60e51b815260206004820152600d60248201526c7061792074686520707269636560981b60448201526064016102e9565b6000838152600560205260408082206003015490516001600160a01b03909116913480156108fc02929091818181858888f19350505050158015610a21573d6000803e3d6000fd5b506040516323b872dd60e01b8152306004820152336024820152604481018290526001600160a01b038516906323b872dd90606401600060405180830381600087803b158015610a7057600080fd5b505af1158015610a84573d6000803e3d6000fd5b50505060008481526005602052604090206004810180546001600160a01b03191633179055600601805460ff1916600117905550610ac6600280546001019055565b6003546004546040516001600160a01b039092169181156108fc0291906000818181858888f19350505050158015610b02573d6000803e3d6000fd5b50506001600055505050565b6040805160e081018252600080825260208201819052918101829052606081018290526080810182905260a0810182905260c081019190915290565b80356001600160a01b0381168114610b6157600080fd5b919050565b60008060408385031215610b78578182fd5b610b8183610b4a565b946020939093013593505050565b600080600060608486031215610ba3578081fd5b610bac84610b4a565b95602085013595506040909401359392505050565b602080825282518282018190526000919060409081850190868401855b82811015610c4857815180518552868101516001600160a01b039081168887015286820151878701526060808301518216908701526080808301519091169086015260a0808201519086015260c09081015115159085015260e09093019290850190600101610bde565b5091979650505050505050565b60008219821115610c6857610c68610c9f565b500190565b600082821015610c7f57610c7f610c9f565b500390565b6000600019821415610c9857610c98610c9f565b5060010190565b634e487b7160e01b600052601160045260246000fdfea264697066735822122065c909d2b0c7a5aeca45360725938cb366435307725acb7fa5c900d17bdb6e3b64736f6c63430008040033",
  "linkReferences": {},
  "deployedLinkReferences": {}
}